:020000040000FA
:040000002FEF00F0EE
:020004000000FA
:040008000EEF00F007
:080018001CEF00F026EC00F0E3
:100020008D804BEC00F04BEC00F04BEC00F04BEC17
:1000300000F000008D901100110096909692120031
:10004000D09EA00EF26E880ED56E1200FE0ED76EF8
:10005000CF0ED66EF2941200006A016A12002CECE8
:1000600000F01DEC00F020EC00F026EC00F08D829A
:100070004BEC00F04BEC00F04BEC00F04BEC00F0E4
:100080008D924BEC00F04BEC00F04BEC00F04BECA5
:1000900000F037EF00F0000000000000000000005A
:0200A00012004C
:020000040030CA
:0100010006F8
:010003001EDE
:010005008179
:00000001FF
