:020000040000FA
:0400000080EF00F09D
:020004000000FA
:040008000EEF00F007
:0800180065EF00F072EC00F04E
:10002000000E00622CEF00F0010E01628D92010EB5
:1000300001648D828D800000012AD8B0002A020E52
:10004000006235EF00F00D0E01624FEF00F000008E
:10005000006A016A5BEF00F0000000000000000091
:10006000000000008D801CEF00F0000E00623BEFEE
:1000700000F046EF00F00000000051EC03F051ECFE
:1000800003F000000000000063EF00F051EC03F00B
:1000900051EC03F000000000000063EF00F00000EE
:1000A00051EC03F000000000000000000000000020
:1000B000000063EF00F051EC03F051EC03F000009E
:1000C0000000000000008D901100110092909292AB
:1000D0009294969096921200D09EA00EF26E880E88
:1000E000D56E1200FE0ED76ECF0ED66EF2941200B1
:1000F000006A016A899089928994070E026E120043
:1001000078EC00F066EC00F06CEC00F072EC00F0C3
:10011000000E006292EF00F0230E016488EF00F001
:1001200047EF03F0020E006247EF03F0030E016099
:1001300088EF00F047EF03F05EEC03F05EEC03F0B5
:100140005EEC03F05EEC03F05EEC03F06BEC03F0AE
:100150006BEC03F06BEC03F088EF00F05EEC03F067
:10016000896E5EEC03F05EEC03F06BEC03F06BEC7D
:1001700003F0000000000000896A5EEC03F05EEC12
:1001800003F04DEC03F088EF00F05EEC03F0896EB5
:10019000000000000000896A5EEC03F05EEC03F0F2
:1001A0005EEC03F05EEC03F057EC03F057EC03F069
:1001B00057EC03F0000088EF00F05EEC03F0896E6E
:1001C000000000000000896A5EEC03F05EEC03F0C2
:1001D00057EC03F051EC03F0896E000000000000C2
:1001E000896A5EEC03F05EEC03F04DEC03F088EFFF
:1001F00000F05EEC03F0896E000000000000896AE8
:100200005EEC03F05EEC03F04DEC03F0896E57EC0E
:1002100003F057EC03F04DEC03F0896A5EEC03F059
:100220006BEC03F06BEC03F057EC03F0000088EF8D
:1002300000F05EEC03F0896E000000000000896AA7
:100240005EEC03F05EEC03F04DEC03F0896E000011
:1002500000000000896A57EC03F051EC03F0896E4E
:10026000000000000000896A5EEC03F06BEC03F014
:100270006BEC03F057EC03F0000088EF00F05EEC4D
:1002800003F0896E000000000000896A5EEC03F054
:100290005EEC03F04DEC03F0896E000000000000FE
:1002A000896A57EC03F051EC03F0896E00000000FE
:1002B0000000896A4DEC03F0896E00000000000028
:1002C000896A57EC03F051EC03F0896E00000000DE
:1002D0000000896A4DEC03F0896E57EC03F057EC8F
:1002E00003F04DEC03F0896A00000000000088EF85
:1002F00000F05EEC03F0896E000000000000896AE7
:100300005EEC03F05EEC03F04DEC03F0896E000050
:1003100000000000896A57EC03F051EC03F0896E8D
:10032000000000000000896A4DEC03F0896E0000B7
:1003300000000000896A57EC03F051EC03F0896E6D
:10034000000000000000896A4DEC03F0896E000097
:1003500000000000896A57EC03F051EC03F0896E4D
:10036000000000000000896A00000000000088EF23
:1003700000F05EEC03F0896E000000000000896A66
:100380005EEC03F05EEC03F04DEC03F0896E57EC8D
:1003900003F057EC03F04DEC03F0896A4DEC03F0E9
:1003A000896E57EC03F057EC03F04DEC03F0896ACB
:1003B0004DEC03F0896E57EC03F057EC03F04DEC75
:1003C00003F0896A00000000000088EF00F05EEC96
:1003D00003F0896E000000000000896A5EEC03F003
:1003E0005EEC03F06BEC03F06BEC03F04DEC03F010
:1003F000896E000000000000896A6BEC03F06BEC72
:1004000003F04DEC03F0896E000000000000896AE3
:100410004DEC03F0896E000000000000896A57EC83
:1004200003F051EC03F0896E000000000000896ABF
:1004300000000000000088EF00F06BEC03F06BECB4
:1004400003F04DEC03F0020E896E57EC03F051EC13
:1004500003F0896A5EEC03F05EEC03F06BEC03F0F2
:1004600057EC03F00000896E000000000000896A6C
:100470006BEC03F06BEC03F04DEC03F0896E0000C5
:1004800000000000896A4DEC03F0896E57EC03F020
:1004900057EC03F04DEC03F0896A00000000000007
:1004A00088EF00F05EEC03F05EEC03F05EEC03F02E
:1004B0006BEC03F0896E000000000000896A57ECC5
:1004C00003F051EC03F0896E000000000000896A1F
:1004D0004DEC03F0896E000000000000896A57ECC3
:1004E00003F051EC03F0896E000000000000896AFF
:1004F0004DEC03F0896E57EC03F057EC03F04DEC34
:1005000003F0896A00000000000088EF00F05EEC54
:1005100003F05EEC03F05EEC03F06BEC03F0896E2D
:10052000000000000000896A57EC03F051EC03F072
:10053000896E000000000000896A4DEC03F0896EAE
:10054000000000000000896A57EC03F051EC03F052
:10055000896E000000000000896A4DEC03F0896E8E
:10056000000000000000896A57EC03F051EC03F032
:100570008984000000000000896A0000000000007B
:1005800088EF00F05EEC03F05EEC03F05EEC03F04D
:100590006BEC03F0896E57EC03F057EC03F04DEC75
:1005A00003F0896A4DEC03F0896E57EC03F057ECC9
:1005B00003F04DEC03F0896A4DEC03F0896E57ECC3
:1005C00003F057EC03F04DEC03F0896A00000000E3
:1005D000000088EF00F05EEC03F05EEC03F05EECF0
:1005E00003F06BEC03F06BEC03F06BEC03F0896E43
:1005F000000000000000896A6BEC03F06BEC03F074
:100600004DEC03F0896E000000000000896A4DEC9B
:1006100003F0896E000000000000896A57EC03F0C7
:1006200051EC03F0896E000000000000896A0000B0
:100630000000000088EF00F05EEC03F05EEC03F0D9
:100640005EEC03F06BEC03F06BEC03F06BEC03F08F
:10065000896E000000000000896A6BEC03F06BEC0F
:1006600003F04DEC03F0896E000000000000896A81
:100670004DEC03F0896E57EC03F057EC03F04DECB2
:1006800003F0896A00000000000088EF00F0000E0F
:100690000062AEEF03F0B9EF01F00000000002507D
:1006A0001200000000000000000000001200000026
:1006B00000000000000000000000120057EC03F0F2
:1006C00057EC03F057EC03F00000000000000000BE
:1006D00000000250120000000000000000000000B6
:1006E00000000000000012000000000000000000F8
:1006F000000000006BEC03F06BEC03F06BEC03F01C
:100700008980898289846BEC03F06BEC03F0899417
:100710006BEC03F06BEC03F0898489906BEC03F0D5
:100720006BEC03F089946BEC03F06BEC03F08980C5
:10073000899289846BEC03F06BEC03F089946BEC89
:1007400003F06BEC03F0899089846BEC03F06BECA5
:1007500003F089946BEC03F088EF00F000000000D8
:100760006BEC03F06BEC03F06BEC03F08980898297
:1007700089846BEC03F06BEC03F089946BEC03F071
:100780006BEC03F0898489906BEC03F06BEC03F065
:1007900089946BEC03F06BEC03F089808992898477
:1007A0006BEC03F06BEC03F089946BEC03F06BECF7
:1007B00003F0899089846BEC03F06BEC03F089946F
:1007C0006BEC03F0000000000000000000000000DF
:0407D00088EF00F0BE
:020000040030CA
:0100010006F8
:010003001EDE
:010005008179
:00000001FF
